{
  "_format": "hh-sol-artifact-1",
  "contractName": "NFTMarketplace",
  "sourceName": "contracts/NFTMarketplace.sol",
  "abi": [
    {
      "inputs": [],
      "stateMutability": "nonpayable",
      "type": "constructor"
    },
    {
      "anonymous": false,
      "inputs": [
        {
          "indexed": true,
          "internalType": "address",
          "name": "owner",
          "type": "address"
        },
        {
          "indexed": true,
          "internalType": "address",
          "name": "approved",
          "type": "address"
        },
        {
          "indexed": true,
          "internalType": "uint256",
          "name": "tokenId",
          "type": "uint256"
        }
      ],
      "name": "Approval",
      "type": "event"
    },
    {
      "anonymous": false,
      "inputs": [
        {
          "indexed": true,
          "internalType": "address",
          "name": "owner",
          "type": "address"
        },
        {
          "indexed": true,
          "internalType": "address",
          "name": "operator",
          "type": "address"
        },
        {
          "indexed": false,
          "internalType": "bool",
          "name": "approved",
          "type": "bool"
        }
      ],
      "name": "ApprovalForAll",
      "type": "event"
    },
    {
      "anonymous": false,
      "inputs": [
        {
          "indexed": false,
          "internalType": "uint256",
          "name": "_fromTokenId",
          "type": "uint256"
        },
        {
          "indexed": false,
          "internalType": "uint256",
          "name": "_toTokenId",
          "type": "uint256"
        }
      ],
      "name": "BatchMetadataUpdate",
      "type": "event"
    },
    {
      "anonymous": false,
      "inputs": [
        {
          "indexed": true,
          "internalType": "uint256",
          "name": "tokenId",
          "type": "uint256"
        },
        {
          "indexed": false,
          "internalType": "address",
          "name": "seller",
          "type": "address"
        },
        {
          "indexed": false,
          "internalType": "address",
          "name": "owner",
          "type": "address"
        },
        {
          "indexed": false,
          "internalType": "uint256",
          "name": "price",
          "type": "uint256"
        },
        {
          "indexed": false,
          "internalType": "bool",
          "name": "sold",
          "type": "bool"
        }
      ],
      "name": "MarketItemCreated",
      "type": "event"
    },
    {
      "anonymous": false,
      "inputs": [
        {
          "indexed": false,
          "internalType": "uint256",
          "name": "_tokenId",
          "type": "uint256"
        }
      ],
      "name": "MetadataUpdate",
      "type": "event"
    },
    {
      "anonymous": false,
      "inputs": [
        {
          "indexed": true,
          "internalType": "address",
          "name": "from",
          "type": "address"
        },
        {
          "indexed": true,
          "internalType": "address",
          "name": "to",
          "type": "address"
        },
        {
          "indexed": true,
          "internalType": "uint256",
          "name": "tokenId",
          "type": "uint256"
        }
      ],
      "name": "Transfer",
      "type": "event"
    },
    {
      "inputs": [],
      "name": "Rowner",
      "outputs": [
        {
          "internalType": "address payable",
          "name": "",
          "type": "address"
        }
      ],
      "stateMutability": "view",
      "type": "function"
    },
    {
      "inputs": [
        {
          "internalType": "address",
          "name": "to",
          "type": "address"
        },
        {
          "internalType": "uint256",
          "name": "tokenId",
          "type": "uint256"
        }
      ],
      "name": "approve",
      "outputs": [],
      "stateMutability": "nonpayable",
      "type": "function"
    },
    {
      "inputs": [
        {
          "internalType": "address",
          "name": "owner",
          "type": "address"
        }
      ],
      "name": "balanceOf",
      "outputs": [
        {
          "internalType": "uint256",
          "name": "",
          "type": "uint256"
        }
      ],
      "stateMutability": "view",
      "type": "function"
    },
    {
      "inputs": [
        {
          "internalType": "string",
          "name": "name",
          "type": "string"
        },
        {
          "internalType": "string",
          "name": "message",
          "type": "string"
        }
      ],
      "name": "buyChai",
      "outputs": [],
      "stateMutability": "payable",
      "type": "function"
    },
    {
      "inputs": [
        {
          "internalType": "uint256",
          "name": "tokenId",
          "type": "uint256"
        }
      ],
      "name": "createMarketSale",
      "outputs": [],
      "stateMutability": "payable",
      "type": "function"
    },
    {
      "inputs": [
        {
          "internalType": "string",
          "name": "tokenURI",
          "type": "string"
        },
        {
          "internalType": "uint256",
          "name": "price",
          "type": "uint256"
        }
      ],
      "name": "createToken",
      "outputs": [
        {
          "internalType": "uint256",
          "name": "",
          "type": "uint256"
        }
      ],
      "stateMutability": "payable",
      "type": "function"
    },
    {
      "inputs": [],
      "name": "fetchItemsListed",
      "outputs": [
        {
          "components": [
            {
              "internalType": "uint256",
              "name": "tokenId",
              "type": "uint256"
            },
            {
              "internalType": "address payable",
              "name": "seller",
              "type": "address"
            },
            {
              "internalType": "address payable",
              "name": "owner",
              "type": "address"
            },
            {
              "internalType": "uint256",
              "name": "price",
              "type": "uint256"
            },
            {
              "internalType": "bool",
              "name": "sold",
              "type": "bool"
            }
          ],
          "internalType": "struct NFTMarketplace.MarketItem[]",
          "name": "",
          "type": "tuple[]"
        }
      ],
      "stateMutability": "view",
      "type": "function"
    },
    {
      "inputs": [],
      "name": "fetchMarketItems",
      "outputs": [
        {
          "components": [
            {
              "internalType": "uint256",
              "name": "tokenId",
              "type": "uint256"
            },
            {
              "internalType": "address payable",
              "name": "seller",
              "type": "address"
            },
            {
              "internalType": "address payable",
              "name": "owner",
              "type": "address"
            },
            {
              "internalType": "uint256",
              "name": "price",
              "type": "uint256"
            },
            {
              "internalType": "bool",
              "name": "sold",
              "type": "bool"
            }
          ],
          "internalType": "struct NFTMarketplace.MarketItem[]",
          "name": "",
          "type": "tuple[]"
        }
      ],
      "stateMutability": "view",
      "type": "function"
    },
    {
      "inputs": [],
      "name": "fetchMyNFTs",
      "outputs": [
        {
          "components": [
            {
              "internalType": "uint256",
              "name": "tokenId",
              "type": "uint256"
            },
            {
              "internalType": "address payable",
              "name": "seller",
              "type": "address"
            },
            {
              "internalType": "address payable",
              "name": "owner",
              "type": "address"
            },
            {
              "internalType": "uint256",
              "name": "price",
              "type": "uint256"
            },
            {
              "internalType": "bool",
              "name": "sold",
              "type": "bool"
            }
          ],
          "internalType": "struct NFTMarketplace.MarketItem[]",
          "name": "",
          "type": "tuple[]"
        }
      ],
      "stateMutability": "view",
      "type": "function"
    },
    {
      "inputs": [
        {
          "internalType": "uint256",
          "name": "tokenId",
          "type": "uint256"
        }
      ],
      "name": "getApproved",
      "outputs": [
        {
          "internalType": "address",
          "name": "",
          "type": "address"
        }
      ],
      "stateMutability": "view",
      "type": "function"
    },
    {
      "inputs": [],
      "name": "getBalance",
      "outputs": [
        {
          "internalType": "uint256",
          "name": "",
          "type": "uint256"
        }
      ],
      "stateMutability": "view",
      "type": "function"
    },
    {
      "inputs": [],
      "name": "getListingPrice",
      "outputs": [
        {
          "internalType": "uint256",
          "name": "",
          "type": "uint256"
        }
      ],
      "stateMutability": "view",
      "type": "function"
    },
    {
      "inputs": [],
      "name": "getMemos",
      "outputs": [
        {
          "components": [
            {
              "internalType": "string",
              "name": "name",
              "type": "string"
            },
            {
              "internalType": "string",
              "name": "message",
              "type": "string"
            },
            {
              "internalType": "uint256",
              "name": "timestamp",
              "type": "uint256"
            },
            {
              "internalType": "address",
              "name": "from",
              "type": "address"
            }
          ],
          "internalType": "struct NFTMarketplace.Memo[]",
          "name": "",
          "type": "tuple[]"
        }
      ],
      "stateMutability": "view",
      "type": "function"
    },
    {
      "inputs": [
        {
          "internalType": "address",
          "name": "owner",
          "type": "address"
        },
        {
          "internalType": "address",
          "name": "operator",
          "type": "address"
        }
      ],
      "name": "isApprovedForAll",
      "outputs": [
        {
          "internalType": "bool",
          "name": "",
          "type": "bool"
        }
      ],
      "stateMutability": "view",
      "type": "function"
    },
    {
      "inputs": [],
      "name": "name",
      "outputs": [
        {
          "internalType": "string",
          "name": "",
          "type": "string"
        }
      ],
      "stateMutability": "view",
      "type": "function"
    },
    {
      "inputs": [
        {
          "internalType": "uint256",
          "name": "tokenId",
          "type": "uint256"
        }
      ],
      "name": "ownerOf",
      "outputs": [
        {
          "internalType": "address",
          "name": "",
          "type": "address"
        }
      ],
      "stateMutability": "view",
      "type": "function"
    },
    {
      "inputs": [
        {
          "internalType": "uint256",
          "name": "tokenId",
          "type": "uint256"
        },
        {
          "internalType": "uint256",
          "name": "price",
          "type": "uint256"
        }
      ],
      "name": "resellToken",
      "outputs": [],
      "stateMutability": "payable",
      "type": "function"
    },
    {
      "inputs": [
        {
          "internalType": "address",
          "name": "from",
          "type": "address"
        },
        {
          "internalType": "address",
          "name": "to",
          "type": "address"
        },
        {
          "internalType": "uint256",
          "name": "tokenId",
          "type": "uint256"
        }
      ],
      "name": "safeTransferFrom",
      "outputs": [],
      "stateMutability": "nonpayable",
      "type": "function"
    },
    {
      "inputs": [
        {
          "internalType": "address",
          "name": "from",
          "type": "address"
        },
        {
          "internalType": "address",
          "name": "to",
          "type": "address"
        },
        {
          "internalType": "uint256",
          "name": "tokenId",
          "type": "uint256"
        },
        {
          "internalType": "bytes",
          "name": "data",
          "type": "bytes"
        }
      ],
      "name": "safeTransferFrom",
      "outputs": [],
      "stateMutability": "nonpayable",
      "type": "function"
    },
    {
      "inputs": [
        {
          "internalType": "address",
          "name": "operator",
          "type": "address"
        },
        {
          "internalType": "bool",
          "name": "approved",
          "type": "bool"
        }
      ],
      "name": "setApprovalForAll",
      "outputs": [],
      "stateMutability": "nonpayable",
      "type": "function"
    },
    {
      "inputs": [
        {
          "internalType": "bytes4",
          "name": "interfaceId",
          "type": "bytes4"
        }
      ],
      "name": "supportsInterface",
      "outputs": [
        {
          "internalType": "bool",
          "name": "",
          "type": "bool"
        }
      ],
      "stateMutability": "view",
      "type": "function"
    },
    {
      "inputs": [],
      "name": "symbol",
      "outputs": [
        {
          "internalType": "string",
          "name": "",
          "type": "string"
        }
      ],
      "stateMutability": "view",
      "type": "function"
    },
    {
      "inputs": [
        {
          "internalType": "uint256",
          "name": "tokenId",
          "type": "uint256"
        }
      ],
      "name": "tokenURI",
      "outputs": [
        {
          "internalType": "string",
          "name": "",
          "type": "string"
        }
      ],
      "stateMutability": "view",
      "type": "function"
    },
    {
      "inputs": [
        {
          "internalType": "address",
          "name": "from",
          "type": "address"
        },
        {
          "internalType": "address",
          "name": "to",
          "type": "address"
        },
        {
          "internalType": "uint256",
          "name": "tokenId",
          "type": "uint256"
        }
      ],
      "name": "transferFrom",
      "outputs": [],
      "stateMutability": "nonpayable",
      "type": "function"
    },
    {
      "inputs": [
        {
          "internalType": "uint256",
          "name": "_listingPrice",
          "type": "uint256"
        }
      ],
      "name": "updateListingPrice",
      "outputs": [],
      "stateMutability": "payable",
      "type": "function"
    }
  ],
  "bytecode": "0x60806040526658d15e17628000600a553480156200001c57600080fd5b506040518060400160405280601081526020017f4d657461766572736520546f6b656e73000000000000000000000000000000008152506040518060400160405280600481526020017f4d455454000000000000000000000000000000000000000000000000000000008152508160009080519060200190620000a192919062000145565b508060019080519060200190620000ba92919062000145565b50505033600e60006101000a81548173ffffffffffffffffffffffffffffffffffffffff021916908373ffffffffffffffffffffffffffffffffffffffff16021790555033600b60006101000a81548173ffffffffffffffffffffffffffffffffffffffff021916908373ffffffffffffffffffffffffffffffffffffffff1602179055506200025a565b828054620001539062000224565b90600052602060002090601f016020900481019282620001775760008555620001c3565b82601f106200019257805160ff1916838001178555620001c3565b82800160010185558215620001c3579182015b82811115620001c2578251825591602001919060010190620001a5565b5b509050620001d29190620001d6565b5090565b5b80821115620001f1576000816000905550600101620001d7565b5090565b7f4e487b7100000000000000000000000000000000000000000000000000000000600052602260045260246000fd5b600060028204905060018216806200023d57607f821691505b60208210811415620002545762000253620001f5565b5b50919050565b6148de806200026a6000396000f3fe6080604052600436106101665760003560e01c80636a13d859116100d1578063a22cb4651161008a578063be9af53611610064578063be9af53614610517578063c87b56dd14610533578063e219fc7514610570578063e985e9c51461058c57610166565b8063a22cb465146104a9578063ae677aa3146104d2578063b88d4fde146104ee57610166565b80636a13d8591461039f57806370a08231146103bb57806372b3b620146103f8578063865c51721461042857806395d89b4114610453578063a0d180451461047e57610166565b806312e855851161012357806312e855851461028f578063202e3740146102ba57806323b872dd146102e557806342842e0e1461030e57806345f8fa80146103375780636352211e1461036257610166565b806301ffc9a71461016b57806306fdde03146101a8578063081812fc146101d3578063095ea7b3146102105780630f08efe01461023957806312065fe014610264575b600080fd5b34801561017757600080fd5b50610192600480360381019061018d9190613118565b6105c9565b60405161019f9190613160565b60405180910390f35b3480156101b457600080fd5b506101bd61062a565b6040516101ca9190613214565b60405180910390f35b3480156101df57600080fd5b506101fa60048036038101906101f5919061326c565b6106bc565b60405161020791906132da565b60405180910390f35b34801561021c57600080fd5b5061023760048036038101906102329190613321565b610702565b005b34801561024557600080fd5b5061024e61081a565b60405161025b91906134b7565b60405180910390f35b34801561027057600080fd5b50610279610a83565b60405161028691906134e8565b60405180910390f35b34801561029b57600080fd5b506102a4610ac4565b6040516102b191906134e8565b60405180910390f35b3480156102c657600080fd5b506102cf610ace565b6040516102dc91906134b7565b60405180910390f35b3480156102f157600080fd5b5061030c60048036038101906103079190613503565b610dbc565b005b34801561031a57600080fd5b5061033560048036038101906103309190613503565b610e1c565b005b34801561034357600080fd5b5061034c610e3c565b60405161035991906134b7565b60405180910390f35b34801561036e57600080fd5b506103896004803603810190610384919061326c565b61112a565b60405161039691906132da565b60405180910390f35b6103b960048036038101906103b4919061368b565b6111b1565b005b3480156103c757600080fd5b506103e260048036038101906103dd9190613703565b611350565b6040516103ef91906134e8565b60405180910390f35b610412600480360381019061040d9190613730565b611408565b60405161041f91906134e8565b60405180910390f35b34801561043457600080fd5b5061043d61144a565b60405161044a9190613911565b60405180910390f35b34801561045f57600080fd5b5061046861162d565b6040516104759190613214565b60405180910390f35b34801561048a57600080fd5b506104936116bf565b6040516104a09190613942565b60405180910390f35b3480156104b557600080fd5b506104d060048036038101906104cb9190613989565b6116e5565b005b6104ec60048036038101906104e7919061326c565b6116fb565b005b3480156104fa57600080fd5b5061051560048036038101906105109190613a6a565b611795565b005b610531600480360381019061052c919061326c565b6117f7565b005b34801561053f57600080fd5b5061055a6004803603810190610555919061326c565b611a35565b6040516105679190613214565b60405180910390f35b61058a60048036038101906105859190613aed565b611b48565b005b34801561059857600080fd5b506105b360048036038101906105ae9190613b2d565b611d3d565b6040516105c09190613160565b60405180910390f35b6000634906490660e01b7bffffffffffffffffffffffffffffffffffffffffffffffffffffffff1916827bffffffffffffffffffffffffffffffffffffffffffffffffffffffff19161480610623575061062282611dd1565b5b9050919050565b60606000805461063990613b9c565b80601f016020809104026020016040519081016040528092919081815260200182805461066590613b9c565b80156106b25780601f10610687576101008083540402835291602001916106b2565b820191906000526020600020905b81548152906001019060200180831161069557829003601f168201915b5050505050905090565b60006106c782611eb3565b6004600083815260200190815260200160002060009054906101000a900473ffffffffffffffffffffffffffffffffffffffff169050919050565b600061070d8261112a565b90508073ffffffffffffffffffffffffffffffffffffffff168373ffffffffffffffffffffffffffffffffffffffff16141561077e576040517f08c379a000000000000000000000000000000000000000000000000000000000815260040161077590613c40565b60405180910390fd5b8073ffffffffffffffffffffffffffffffffffffffff1661079d611efe565b73ffffffffffffffffffffffffffffffffffffffff1614806107cc57506107cb816107c6611efe565b611d3d565b5b61080b576040517f08c379a000000000000000000000000000000000000000000000000000000000815260040161080290613cd2565b60405180910390fd5b6108158383611f06565b505050565b606060006108286007611fbf565b905060006108366008611fbf565b6108406007611fbf565b61084a9190613d21565b90506000808267ffffffffffffffff81111561086957610868613560565b5b6040519080825280602002602001820160405280156108a257816020015b61088f612fac565b8152602001906001900390816108875790505b50905060005b84811015610a78573073ffffffffffffffffffffffffffffffffffffffff16600c60006001846108d89190613d55565b815260200190815260200160002060020160009054906101000a900473ffffffffffffffffffffffffffffffffffffffff1673ffffffffffffffffffffffffffffffffffffffff161415610a655760006001826109359190613d55565b90506000600c60008381526020019081526020016000209050806040518060a0016040529081600082015481526020016001820160009054906101000a900473ffffffffffffffffffffffffffffffffffffffff1673ffffffffffffffffffffffffffffffffffffffff1673ffffffffffffffffffffffffffffffffffffffff1681526020016002820160009054906101000a900473ffffffffffffffffffffffffffffffffffffffff1673ffffffffffffffffffffffffffffffffffffffff1673ffffffffffffffffffffffffffffffffffffffff168152602001600382015481526020016004820160009054906101000a900460ff161515151581525050848681518110610a4857610a47613dab565b5b6020026020010181905250600185610a609190613d55565b945050505b8080610a7090613dda565b9150506108a8565b508094505050505090565b6000600e60009054906101000a900473ffffffffffffffffffffffffffffffffffffffff1673ffffffffffffffffffffffffffffffffffffffff1631905090565b6000600a54905090565b60606000610adc6007611fbf565b905060008060005b83811015610b85573373ffffffffffffffffffffffffffffffffffffffff16600c6000600184610b149190613d55565b815260200190815260200160002060020160009054906101000a900473ffffffffffffffffffffffffffffffffffffffff1673ffffffffffffffffffffffffffffffffffffffff161415610b7257600183610b6f9190613d55565b92505b8080610b7d90613dda565b915050610ae4565b5060008267ffffffffffffffff811115610ba257610ba1613560565b5b604051908082528060200260200182016040528015610bdb57816020015b610bc8612fac565b815260200190600190039081610bc05790505b50905060005b84811015610db1573373ffffffffffffffffffffffffffffffffffffffff16600c6000600184610c119190613d55565b815260200190815260200160002060020160009054906101000a900473ffffffffffffffffffffffffffffffffffffffff1673ffffffffffffffffffffffffffffffffffffffff161415610d9e576000600182610c6e9190613d55565b90506000600c60008381526020019081526020016000209050806040518060a0016040529081600082015481526020016001820160009054906101000a900473ffffffffffffffffffffffffffffffffffffffff1673ffffffffffffffffffffffffffffffffffffffff1673ffffffffffffffffffffffffffffffffffffffff1681526020016002820160009054906101000a900473ffffffffffffffffffffffffffffffffffffffff1673ffffffffffffffffffffffffffffffffffffffff1673ffffffffffffffffffffffffffffffffffffffff168152602001600382015481526020016004820160009054906101000a900460ff161515151581525050848681518110610d8157610d80613dab565b5b6020026020010181905250600185610d999190613d55565b945050505b8080610da990613dda565b915050610be1565b508094505050505090565b610dcd610dc7611efe565b82611fcd565b610e0c576040517f08c379a0000000000000000000000000000000000000000000000000000000008152600401610e0390613e95565b60405180910390fd5b610e17838383612062565b505050565b610e3783838360405180602001604052806000815250611795565b505050565b60606000610e4a6007611fbf565b905060008060005b83811015610ef3573373ffffffffffffffffffffffffffffffffffffffff16600c6000600184610e829190613d55565b815260200190815260200160002060010160009054906101000a900473ffffffffffffffffffffffffffffffffffffffff1673ffffffffffffffffffffffffffffffffffffffff161415610ee057600183610edd9190613d55565b92505b8080610eeb90613dda565b915050610e52565b5060008267ffffffffffffffff811115610f1057610f0f613560565b5b604051908082528060200260200182016040528015610f4957816020015b610f36612fac565b815260200190600190039081610f2e5790505b50905060005b8481101561111f573373ffffffffffffffffffffffffffffffffffffffff16600c6000600184610f7f9190613d55565b815260200190815260200160002060010160009054906101000a900473ffffffffffffffffffffffffffffffffffffffff1673ffffffffffffffffffffffffffffffffffffffff16141561110c576000600182610fdc9190613d55565b90506000600c60008381526020019081526020016000209050806040518060a0016040529081600082015481526020016001820160009054906101000a900473ffffffffffffffffffffffffffffffffffffffff1673ffffffffffffffffffffffffffffffffffffffff1673ffffffffffffffffffffffffffffffffffffffff1681526020016002820160009054906101000a900473ffffffffffffffffffffffffffffffffffffffff1673ffffffffffffffffffffffffffffffffffffffff1673ffffffffffffffffffffffffffffffffffffffff168152602001600382015481526020016004820160009054906101000a900460ff1615151515815250508486815181106110ef576110ee613dab565b5b60200260200101819052506001856111079190613d55565b945050505b808061111790613dda565b915050610f4f565b508094505050505090565b6000806111368361235c565b9050600073ffffffffffffffffffffffffffffffffffffffff168173ffffffffffffffffffffffffffffffffffffffff1614156111a8576040517f08c379a000000000000000000000000000000000000000000000000000000000815260040161119f90613f01565b60405180910390fd5b80915050919050565b600034116111f4576040517f08c379a00000000000000000000000000000000000000000000000000000000081526004016111eb90613f93565b60405180910390fd5b600e60009054906101000a900473ffffffffffffffffffffffffffffffffffffffff1673ffffffffffffffffffffffffffffffffffffffff166108fc349081150290604051600060405180830381858888f1935050505015801561125c573d6000803e3d6000fd5b50600d60405180608001604052808481526020018381526020014281526020013373ffffffffffffffffffffffffffffffffffffffff16815250908060018154018082558091505060019003906000526020600020906004020160009091909190915060008201518160000190805190602001906112db929190613009565b5060208201518160010190805190602001906112f8929190613009565b506040820151816002015560608201518160030160006101000a81548173ffffffffffffffffffffffffffffffffffffffff021916908373ffffffffffffffffffffffffffffffffffffffff16021790555050505050565b60008073ffffffffffffffffffffffffffffffffffffffff168273ffffffffffffffffffffffffffffffffffffffff1614156113c1576040517f08c379a00000000000000000000000000000000000000000000000000000000081526004016113b890614025565b60405180910390fd5b600360008373ffffffffffffffffffffffffffffffffffffffff1673ffffffffffffffffffffffffffffffffffffffff168152602001908152602001600020549050919050565b60006114146007612399565b60006114206007611fbf565b905061142c33826123af565b61143681856125cd565b6114408184612678565b8091505092915050565b6060600d805480602002602001604051908101604052809291908181526020016000905b8282101561162457838290600052602060002090600402016040518060800160405290816000820180546114a190613b9c565b80601f01602080910402602001604051908101604052809291908181526020018280546114cd90613b9c565b801561151a5780601f106114ef5761010080835404028352916020019161151a565b820191906000526020600020905b8154815290600101906020018083116114fd57829003601f168201915b5050505050815260200160018201805461153390613b9c565b80601f016020809104026020016040519081016040528092919081815260200182805461155f90613b9c565b80156115ac5780601f10611581576101008083540402835291602001916115ac565b820191906000526020600020905b81548152906001019060200180831161158f57829003601f168201915b50505050508152602001600282015481526020016003820160009054906101000a900473ffffffffffffffffffffffffffffffffffffffff1673ffffffffffffffffffffffffffffffffffffffff1673ffffffffffffffffffffffffffffffffffffffff16815250508152602001906001019061146e565b50505050905090565b60606001805461163c90613b9c565b80601f016020809104026020016040519081016040528092919081815260200182805461166890613b9c565b80156116b55780601f1061168a576101008083540402835291602001916116b5565b820191906000526020600020905b81548152906001019060200180831161169857829003601f168201915b5050505050905090565b600e60009054906101000a900473ffffffffffffffffffffffffffffffffffffffff1681565b6116f76116f0611efe565b838361287b565b5050565b3373ffffffffffffffffffffffffffffffffffffffff16600b60009054906101000a900473ffffffffffffffffffffffffffffffffffffffff1673ffffffffffffffffffffffffffffffffffffffff161461178b576040517f08c379a0000000000000000000000000000000000000000000000000000000008152600401611782906140b7565b60405180910390fd5b80600a8190555050565b6117a66117a0611efe565b83611fcd565b6117e5576040517f08c379a00000000000000000000000000000000000000000000000000000000081526004016117dc90613e95565b60405180910390fd5b6117f1848484846129e8565b50505050565b6000600c60008381526020019081526020016000206003015490506000600c600084815260200190815260200160002060010160009054906101000a900473ffffffffffffffffffffffffffffffffffffffff16905081341461188f576040517f08c379a000000000000000000000000000000000000000000000000000000000815260040161188690614149565b60405180910390fd5b33600c600085815260200190815260200160002060020160006101000a81548173ffffffffffffffffffffffffffffffffffffffff021916908373ffffffffffffffffffffffffffffffffffffffff1602179055506001600c600085815260200190815260200160002060040160006101000a81548160ff0219169083151502179055506000600c600085815260200190815260200160002060010160006101000a81548173ffffffffffffffffffffffffffffffffffffffff021916908373ffffffffffffffffffffffffffffffffffffffff1602179055506119736008612399565b61197e303385612062565b600b60009054906101000a900473ffffffffffffffffffffffffffffffffffffffff1673ffffffffffffffffffffffffffffffffffffffff166108fc600a549081150290604051600060405180830381858888f193505050501580156119e8573d6000803e3d6000fd5b508073ffffffffffffffffffffffffffffffffffffffff166108fc349081150290604051600060405180830381858888f19350505050158015611a2f573d6000803e3d6000fd5b50505050565b6060611a4082611eb3565b6000600660008481526020019081526020016000208054611a6090613b9c565b80601f0160208091040260200160405190810160405280929190818152602001828054611a8c90613b9c565b8015611ad95780601f10611aae57610100808354040283529160200191611ad9565b820191906000526020600020905b815481529060010190602001808311611abc57829003601f168201915b505050505090506000611aea612a44565b9050600081511415611b00578192505050611b43565b600082511115611b35578082604051602001611b1d9291906141a5565b60405160208183030381529060405292505050611b43565b611b3e84612a5b565b925050505b919050565b3373ffffffffffffffffffffffffffffffffffffffff16600c600084815260200190815260200160002060020160009054906101000a900473ffffffffffffffffffffffffffffffffffffffff1673ffffffffffffffffffffffffffffffffffffffff1614611bec576040517f08c379a0000000000000000000000000000000000000000000000000000000008152600401611be39061423b565b60405180910390fd5b600a543414611c30576040517f08c379a0000000000000000000000000000000000000000000000000000000008152600401611c27906142cd565b60405180910390fd5b6000600c600084815260200190815260200160002060040160006101000a81548160ff02191690831515021790555080600c60008481526020019081526020016000206003018190555033600c600084815260200190815260200160002060010160006101000a81548173ffffffffffffffffffffffffffffffffffffffff021916908373ffffffffffffffffffffffffffffffffffffffff16021790555030600c600084815260200190815260200160002060020160006101000a81548173ffffffffffffffffffffffffffffffffffffffff021916908373ffffffffffffffffffffffffffffffffffffffff160217905550611d2e6008612ac3565b611d39333084612062565b5050565b6000600560008473ffffffffffffffffffffffffffffffffffffffff1673ffffffffffffffffffffffffffffffffffffffff16815260200190815260200160002060008373ffffffffffffffffffffffffffffffffffffffff1673ffffffffffffffffffffffffffffffffffffffff16815260200190815260200160002060009054906101000a900460ff16905092915050565b60007f80ac58cd000000000000000000000000000000000000000000000000000000007bffffffffffffffffffffffffffffffffffffffffffffffffffffffff1916827bffffffffffffffffffffffffffffffffffffffffffffffffffffffff19161480611e9c57507f5b5e139f000000000000000000000000000000000000000000000000000000007bffffffffffffffffffffffffffffffffffffffffffffffffffffffff1916827bffffffffffffffffffffffffffffffffffffffffffffffffffffffff1916145b80611eac5750611eab82612b1f565b5b9050919050565b611ebc81612b89565b611efb576040517f08c379a0000000000000000000000000000000000000000000000000000000008152600401611ef290613f01565b60405180910390fd5b50565b600033905090565b816004600083815260200190815260200160002060006101000a81548173ffffffffffffffffffffffffffffffffffffffff021916908373ffffffffffffffffffffffffffffffffffffffff160217905550808273ffffffffffffffffffffffffffffffffffffffff16611f798361112a565b73ffffffffffffffffffffffffffffffffffffffff167f8c5be1e5ebec7d5bd14f71427d1e84f3dd0314c0f7b2291e5b200ac8c7c3b92560405160405180910390a45050565b600081600001549050919050565b600080611fd98361112a565b90508073ffffffffffffffffffffffffffffffffffffffff168473ffffffffffffffffffffffffffffffffffffffff16148061201b575061201a8185611d3d565b5b8061205957508373ffffffffffffffffffffffffffffffffffffffff16612041846106bc565b73ffffffffffffffffffffffffffffffffffffffff16145b91505092915050565b8273ffffffffffffffffffffffffffffffffffffffff166120828261112a565b73ffffffffffffffffffffffffffffffffffffffff16146120d8576040517f08c379a00000000000000000000000000000000000000000000000000000000081526004016120cf9061435f565b60405180910390fd5b600073ffffffffffffffffffffffffffffffffffffffff168273ffffffffffffffffffffffffffffffffffffffff161415612148576040517f08c379a000000000000000000000000000000000000000000000000000000000815260040161213f906143f1565b60405180910390fd5b6121558383836001612bca565b8273ffffffffffffffffffffffffffffffffffffffff166121758261112a565b73ffffffffffffffffffffffffffffffffffffffff16146121cb576040517f08c379a00000000000000000000000000000000000000000000000000000000081526004016121c29061435f565b60405180910390fd5b6004600082815260200190815260200160002060006101000a81549073ffffffffffffffffffffffffffffffffffffffff02191690556001600360008573ffffffffffffffffffffffffffffffffffffffff1673ffffffffffffffffffffffffffffffffffffffff168152602001908152602001600020600082825403925050819055506001600360008473ffffffffffffffffffffffffffffffffffffffff1673ffffffffffffffffffffffffffffffffffffffff16815260200190815260200160002060008282540192505081905550816002600083815260200190815260200160002060006101000a81548173ffffffffffffffffffffffffffffffffffffffff021916908373ffffffffffffffffffffffffffffffffffffffff160217905550808273ffffffffffffffffffffffffffffffffffffffff168473ffffffffffffffffffffffffffffffffffffffff167fddf252ad1be2c89b69c2b068fc378daa952ba7f163c4a11628f55a4df523b3ef60405160405180910390a46123578383836001612bd0565b505050565b60006002600083815260200190815260200160002060009054906101000a900473ffffffffffffffffffffffffffffffffffffffff169050919050565b6001816000016000828254019250508190555050565b600073ffffffffffffffffffffffffffffffffffffffff168273ffffffffffffffffffffffffffffffffffffffff16141561241f576040517f08c379a00000000000000000000000000000000000000000000000000000000081526004016124169061445d565b60405180910390fd5b61242881612b89565b15612468576040517f08c379a000000000000000000000000000000000000000000000000000000000815260040161245f906144c9565b60405180910390fd5b612476600083836001612bca565b61247f81612b89565b156124bf576040517f08c379a00000000000000000000000000000000000000000000000000000000081526004016124b6906144c9565b60405180910390fd5b6001600360008473ffffffffffffffffffffffffffffffffffffffff1673ffffffffffffffffffffffffffffffffffffffff16815260200190815260200160002060008282540192505081905550816002600083815260200190815260200160002060006101000a81548173ffffffffffffffffffffffffffffffffffffffff021916908373ffffffffffffffffffffffffffffffffffffffff160217905550808273ffffffffffffffffffffffffffffffffffffffff16600073ffffffffffffffffffffffffffffffffffffffff167fddf252ad1be2c89b69c2b068fc378daa952ba7f163c4a11628f55a4df523b3ef60405160405180910390a46125c9600083836001612bd0565b5050565b6125d682612b89565b612615576040517f08c379a000000000000000000000000000000000000000000000000000000000815260040161260c9061455b565b60405180910390fd5b8060066000848152602001908152602001600020908051906020019061263c929190613009565b507ff8e1a15aba9398e019f0b49df1a4fde98ee17ae345cb5f6b5e2c27f5033e8ce78260405161266c91906134e8565b60405180910390a15050565b600081116126bb576040517f08c379a00000000000000000000000000000000000000000000000000000000081526004016126b2906145c7565b60405180910390fd5b600a5434146126ff576040517f08c379a00000000000000000000000000000000000000000000000000000000081526004016126f6906142cd565b60405180910390fd5b6040518060a001604052808381526020013373ffffffffffffffffffffffffffffffffffffffff1681526020013073ffffffffffffffffffffffffffffffffffffffff16815260200182815260200160001515815250600c60008481526020019081526020016000206000820151816000015560208201518160010160006101000a81548173ffffffffffffffffffffffffffffffffffffffff021916908373ffffffffffffffffffffffffffffffffffffffff16021790555060408201518160020160006101000a81548173ffffffffffffffffffffffffffffffffffffffff021916908373ffffffffffffffffffffffffffffffffffffffff1602179055506060820151816003015560808201518160040160006101000a81548160ff021916908315150217905550905050612838333084612062565b817fb640004f1d14576d0c209e240cad0410e0d8c0c33a09375861fbadae2588a98d333084600060405161286f94939291906145e7565b60405180910390a25050565b8173ffffffffffffffffffffffffffffffffffffffff168373ffffffffffffffffffffffffffffffffffffffff1614156128ea576040517f08c379a00000000000000000000000000000000000000000000000000000000081526004016128e190614678565b60405180910390fd5b80600560008573ffffffffffffffffffffffffffffffffffffffff1673ffffffffffffffffffffffffffffffffffffffff16815260200190815260200160002060008473ffffffffffffffffffffffffffffffffffffffff1673ffffffffffffffffffffffffffffffffffffffff16815260200190815260200160002060006101000a81548160ff0219169083151502179055508173ffffffffffffffffffffffffffffffffffffffff168373ffffffffffffffffffffffffffffffffffffffff167f17307eab39ab6107e8899845ad3d59bd9653f200f220920489ca2b5937696c31836040516129db9190613160565b60405180910390a3505050565b6129f3848484612062565b6129ff84848484612bd6565b612a3e576040517f08c379a0000000000000000000000000000000000000000000000000000000008152600401612a359061470a565b60405180910390fd5b50505050565b606060405180602001604052806000815250905090565b6060612a6682611eb3565b6000612a70612a44565b90506000815111612a905760405180602001604052806000815250612abb565b80612a9a84612d5e565b604051602001612aab9291906141a5565b6040516020818303038152906040525b915050919050565b60008160000154905060008111612b0f576040517f08c379a0000000000000000000000000000000000000000000000000000000008152600401612b0690614776565b60405180910390fd5b6001810382600001819055505050565b60007f01ffc9a7000000000000000000000000000000000000000000000000000000007bffffffffffffffffffffffffffffffffffffffffffffffffffffffff1916827bffffffffffffffffffffffffffffffffffffffffffffffffffffffff1916149050919050565b60008073ffffffffffffffffffffffffffffffffffffffff16612bab8361235c565b73ffffffffffffffffffffffffffffffffffffffff1614159050919050565b50505050565b50505050565b6000612bf78473ffffffffffffffffffffffffffffffffffffffff16612e36565b15612d51578373ffffffffffffffffffffffffffffffffffffffff1663150b7a02612c20611efe565b8786866040518563ffffffff1660e01b8152600401612c4294939291906147eb565b6020604051808303816000875af1925050508015612c7e57506040513d601f19601f82011682018060405250810190612c7b919061484c565b60015b612d01573d8060008114612cae576040519150601f19603f3d011682016040523d82523d6000602084013e612cb3565b606091505b50600081511415612cf9576040517f08c379a0000000000000000000000000000000000000000000000000000000008152600401612cf09061470a565b60405180910390fd5b805181602001fd5b63150b7a0260e01b7bffffffffffffffffffffffffffffffffffffffffffffffffffffffff1916817bffffffffffffffffffffffffffffffffffffffffffffffffffffffff191614915050612d56565b600190505b949350505050565b606060006001612d6d84612e59565b01905060008167ffffffffffffffff811115612d8c57612d8b613560565b5b6040519080825280601f01601f191660200182016040528015612dbe5781602001600182028036833780820191505090505b509050600082602001820190505b600115612e2b578080600190039150507f3031323334353637383961626364656600000000000000000000000000000000600a86061a8153600a8581612e1557612e14614879565b5b0494506000851415612e2657612e2b565b612dcc565b819350505050919050565b6000808273ffffffffffffffffffffffffffffffffffffffff163b119050919050565b600080600090507a184f03e93ff9f4daa797ed6e38ed64bf6a1f0100000000000000008310612eb7577a184f03e93ff9f4daa797ed6e38ed64bf6a1f0100000000000000008381612ead57612eac614879565b5b0492506040810190505b6d04ee2d6d415b85acef81000000008310612ef4576d04ee2d6d415b85acef81000000008381612eea57612ee9614879565b5b0492506020810190505b662386f26fc100008310612f2357662386f26fc100008381612f1957612f18614879565b5b0492506010810190505b6305f5e1008310612f4c576305f5e1008381612f4257612f41614879565b5b0492506008810190505b6127108310612f71576127108381612f6757612f66614879565b5b0492506004810190505b60648310612f945760648381612f8a57612f89614879565b5b0492506002810190505b600a8310612fa3576001810190505b80915050919050565b6040518060a0016040528060008152602001600073ffffffffffffffffffffffffffffffffffffffff168152602001600073ffffffffffffffffffffffffffffffffffffffff168152602001600081526020016000151581525090565b82805461301590613b9c565b90600052602060002090601f016020900481019282613037576000855561307e565b82601f1061305057805160ff191683800117855561307e565b8280016001018555821561307e579182015b8281111561307d578251825591602001919060010190613062565b5b50905061308b919061308f565b5090565b5b808211156130a8576000816000905550600101613090565b5090565b6000604051905090565b600080fd5b600080fd5b60007fffffffff0000000000000000000000000000000000000000000000000000000082169050919050565b6130f5816130c0565b811461310057600080fd5b50565b600081359050613112816130ec565b92915050565b60006020828403121561312e5761312d6130b6565b5b600061313c84828501613103565b91505092915050565b60008115159050919050565b61315a81613145565b82525050565b60006020820190506131756000830184613151565b92915050565b600081519050919050565b600082825260208201905092915050565b60005b838110156131b557808201518184015260208101905061319a565b838111156131c4576000848401525b50505050565b6000601f19601f8301169050919050565b60006131e68261317b565b6131f08185613186565b9350613200818560208601613197565b613209816131ca565b840191505092915050565b6000602082019050818103600083015261322e81846131db565b905092915050565b6000819050919050565b61324981613236565b811461325457600080fd5b50565b60008135905061326681613240565b92915050565b600060208284031215613282576132816130b6565b5b600061329084828501613257565b91505092915050565b600073ffffffffffffffffffffffffffffffffffffffff82169050919050565b60006132c482613299565b9050919050565b6132d4816132b9565b82525050565b60006020820190506132ef60008301846132cb565b92915050565b6132fe816132b9565b811461330957600080fd5b50565b60008135905061331b816132f5565b92915050565b60008060408385031215613338576133376130b6565b5b60006133468582860161330c565b925050602061335785828601613257565b9150509250929050565b600081519050919050565b600082825260208201905092915050565b6000819050602082019050919050565b61339681613236565b82525050565b60006133a782613299565b9050919050565b6133b78161339c565b82525050565b6133c681613145565b82525050565b60a0820160008201516133e2600085018261338d565b5060208201516133f560208501826133ae565b50604082015161340860408501826133ae565b50606082015161341b606085018261338d565b50608082015161342e60808501826133bd565b50505050565b600061344083836133cc565b60a08301905092915050565b6000602082019050919050565b600061346482613361565b61346e818561336c565b93506134798361337d565b8060005b838110156134aa5781516134918882613434565b975061349c8361344c565b92505060018101905061347d565b5085935050505092915050565b600060208201905081810360008301526134d18184613459565b905092915050565b6134e281613236565b82525050565b60006020820190506134fd60008301846134d9565b92915050565b60008060006060848603121561351c5761351b6130b6565b5b600061352a8682870161330c565b935050602061353b8682870161330c565b925050604061354c86828701613257565b9150509250925092565b600080fd5b600080fd5b7f4e487b7100000000000000000000000000000000000000000000000000000000600052604160045260246000fd5b613598826131ca565b810181811067ffffffffffffffff821117156135b7576135b6613560565b5b80604052505050565b60006135ca6130ac565b90506135d6828261358f565b919050565b600067ffffffffffffffff8211156135f6576135f5613560565b5b6135ff826131ca565b9050602081019050919050565b82818337600083830152505050565b600061362e613629846135db565b6135c0565b90508281526020810184848401111561364a5761364961355b565b5b61365584828561360c565b509392505050565b600082601f83011261367257613671613556565b5b813561368284826020860161361b565b91505092915050565b600080604083850312156136a2576136a16130b6565b5b600083013567ffffffffffffffff8111156136c0576136bf6130bb565b5b6136cc8582860161365d565b925050602083013567ffffffffffffffff8111156136ed576136ec6130bb565b5b6136f98582860161365d565b9150509250929050565b600060208284031215613719576137186130b6565b5b60006137278482850161330c565b91505092915050565b60008060408385031215613747576137466130b6565b5b600083013567ffffffffffffffff811115613765576137646130bb565b5b6137718582860161365d565b925050602061378285828601613257565b9150509250929050565b600081519050919050565b600082825260208201905092915050565b6000819050602082019050919050565b600082825260208201905092915050565b60006137d48261317b565b6137de81856137b8565b93506137ee818560208601613197565b6137f7816131ca565b840191505092915050565b61380b816132b9565b82525050565b6000608083016000830151848203600086015261382e82826137c9565b9150506020830151848203602086015261384882826137c9565b915050604083015161385d604086018261338d565b5060608301516138706060860182613802565b508091505092915050565b60006138878383613811565b905092915050565b6000602082019050919050565b60006138a78261378c565b6138b18185613797565b9350836020820285016138c3856137a8565b8060005b858110156138ff57848403895281516138e0858261387b565b94506138eb8361388f565b925060208a019950506001810190506138c7565b50829750879550505050505092915050565b6000602082019050818103600083015261392b818461389c565b905092915050565b61393c8161339c565b82525050565b60006020820190506139576000830184613933565b92915050565b61396681613145565b811461397157600080fd5b50565b6000813590506139838161395d565b92915050565b600080604083850312156139a05761399f6130b6565b5b60006139ae8582860161330c565b92505060206139bf85828601613974565b9150509250929050565b600067ffffffffffffffff8211156139e4576139e3613560565b5b6139ed826131ca565b9050602081019050919050565b6000613a0d613a08846139c9565b6135c0565b905082815260208101848484011115613a2957613a2861355b565b5b613a3484828561360c565b509392505050565b600082601f830112613a5157613a50613556565b5b8135613a618482602086016139fa565b91505092915050565b60008060008060808587031215613a8457613a836130b6565b5b6000613a928782880161330c565b9450506020613aa38782880161330c565b9350506040613ab487828801613257565b925050606085013567ffffffffffffffff811115613ad557613ad46130bb565b5b613ae187828801613a3c565b91505092959194509250565b60008060408385031215613b0457613b036130b6565b5b6000613b1285828601613257565b9250506020613b2385828601613257565b9150509250929050565b60008060408385031215613b4457613b436130b6565b5b6000613b528582860161330c565b9250506020613b638582860161330c565b9150509250929050565b7f4e487b7100000000000000000000000000000000000000000000000000000000600052602260045260246000fd5b60006002820490506001821680613bb457607f821691505b60208210811415613bc857613bc7613b6d565b5b50919050565b7f4552433732313a20617070726f76616c20746f2063757272656e74206f776e6560008201527f7200000000000000000000000000000000000000000000000000000000000000602082015250565b6000613c2a602183613186565b9150613c3582613bce565b604082019050919050565b60006020820190508181036000830152613c5981613c1d565b9050919050565b7f4552433732313a20617070726f76652063616c6c6572206973206e6f7420746f60008201527f6b656e206f776e6572206f7220617070726f76656420666f7220616c6c000000602082015250565b6000613cbc603d83613186565b9150613cc782613c60565b604082019050919050565b60006020820190508181036000830152613ceb81613caf565b9050919050565b7f4e487b7100000000000000000000000000000000000000000000000000000000600052601160045260246000fd5b6000613d2c82613236565b9150613d3783613236565b925082821015613d4a57613d49613cf2565b5b828203905092915050565b6000613d6082613236565b9150613d6b83613236565b9250827fffffffffffffffffffffffffffffffffffffffffffffffffffffffffffffffff03821115613da057613d9f613cf2565b5b828201905092915050565b7f4e487b7100000000000000000000000000000000000000000000000000000000600052603260045260246000fd5b6000613de582613236565b91507fffffffffffffffffffffffffffffffffffffffffffffffffffffffffffffffff821415613e1857613e17613cf2565b5b600182019050919050565b7f4552433732313a2063616c6c6572206973206e6f7420746f6b656e206f776e6560008201527f72206f7220617070726f76656400000000000000000000000000000000000000602082015250565b6000613e7f602d83613186565b9150613e8a82613e23565b604082019050919050565b60006020820190508181036000830152613eae81613e72565b9050919050565b7f4552433732313a20696e76616c696420746f6b656e2049440000000000000000600082015250565b6000613eeb601883613186565b9150613ef682613eb5565b602082019050919050565b60006020820190508181036000830152613f1a81613ede565b9050919050565b7f506c656173652070617920736f6d657468696e6720677265617465722074686160008201527f6e20300000000000000000000000000000000000000000000000000000000000602082015250565b6000613f7d602383613186565b9150613f8882613f21565b604082019050919050565b60006020820190508181036000830152613fac81613f70565b9050919050565b7f4552433732313a2061646472657373207a65726f206973206e6f74206120766160008201527f6c6964206f776e65720000000000000000000000000000000000000000000000602082015250565b600061400f602983613186565b915061401a82613fb3565b604082019050919050565b6000602082019050818103600083015261403e81614002565b9050919050565b7f4f6e6c79206d61726b6574706c616365206f776e65722063616e20757064617460008201527f65206c697374696e672070726963652e00000000000000000000000000000000602082015250565b60006140a1603083613186565b91506140ac82614045565b604082019050919050565b600060208201905081810360008301526140d081614094565b9050919050565b7f506c65617365207375626d6974207468652061736b696e67207072696365206960008201527f6e206f7264657220746f20636f6d706c65746520746865207075726368617365602082015250565b6000614133604083613186565b915061413e826140d7565b604082019050919050565b6000602082019050818103600083015261416281614126565b9050919050565b600081905092915050565b600061417f8261317b565b6141898185614169565b9350614199818560208601613197565b80840191505092915050565b60006141b18285614174565b91506141bd8284614174565b91508190509392505050565b7f4f6e6c79206974656d206f776e65722063616e20706572666f726d207468697360008201527f206f7065726174696f6e00000000000000000000000000000000000000000000602082015250565b6000614225602a83613186565b9150614230826141c9565b604082019050919050565b6000602082019050818103600083015261425481614218565b9050919050565b7f5072696365206d75737420626520657175616c20746f206c697374696e67207060008201527f7269636500000000000000000000000000000000000000000000000000000000602082015250565b60006142b7602483613186565b91506142c28261425b565b604082019050919050565b600060208201905081810360008301526142e6816142aa565b9050919050565b7f4552433732313a207472616e736665722066726f6d20696e636f72726563742060008201527f6f776e6572000000000000000000000000000000000000000000000000000000602082015250565b6000614349602583613186565b9150614354826142ed565b604082019050919050565b600060208201905081810360008301526143788161433c565b9050919050565b7f4552433732313a207472616e7366657220746f20746865207a65726f2061646460008201527f7265737300000000000000000000000000000000000000000000000000000000602082015250565b60006143db602483613186565b91506143e68261437f565b604082019050919050565b6000602082019050818103600083015261440a816143ce565b9050919050565b7f4552433732313a206d696e7420746f20746865207a65726f2061646472657373600082015250565b6000614447602083613186565b915061445282614411565b602082019050919050565b600060208201905081810360008301526144768161443a565b9050919050565b7f4552433732313a20746f6b656e20616c7265616479206d696e74656400000000600082015250565b60006144b3601c83613186565b91506144be8261447d565b602082019050919050565b600060208201905081810360008301526144e2816144a6565b9050919050565b7f45524337323155524953746f726167653a2055524920736574206f66206e6f6e60008201527f6578697374656e7420746f6b656e000000000000000000000000000000000000602082015250565b6000614545602e83613186565b9150614550826144e9565b604082019050919050565b6000602082019050818103600083015261457481614538565b9050919050565b7f5072696365206d757374206265206174206c6561737420312077656900000000600082015250565b60006145b1601c83613186565b91506145bc8261457b565b602082019050919050565b600060208201905081810360008301526145e0816145a4565b9050919050565b60006080820190506145fc60008301876132cb565b61460960208301866132cb565b61461660408301856134d9565b6146236060830184613151565b95945050505050565b7f4552433732313a20617070726f766520746f2063616c6c657200000000000000600082015250565b6000614662601983613186565b915061466d8261462c565b602082019050919050565b6000602082019050818103600083015261469181614655565b9050919050565b7f4552433732313a207472616e7366657220746f206e6f6e20455243373231526560008201527f63656976657220696d706c656d656e7465720000000000000000000000000000602082015250565b60006146f4603283613186565b91506146ff82614698565b604082019050919050565b60006020820190508181036000830152614723816146e7565b9050919050565b7f436f756e7465723a2064656372656d656e74206f766572666c6f770000000000600082015250565b6000614760601b83613186565b915061476b8261472a565b602082019050919050565b6000602082019050818103600083015261478f81614753565b9050919050565b600081519050919050565b600082825260208201905092915050565b60006147bd82614796565b6147c781856147a1565b93506147d7818560208601613197565b6147e0816131ca565b840191505092915050565b600060808201905061480060008301876132cb565b61480d60208301866132cb565b61481a60408301856134d9565b818103606083015261482c81846147b2565b905095945050505050565b600081519050614846816130ec565b92915050565b600060208284031215614862576148616130b6565b5b600061487084828501614837565b91505092915050565b7f4e487b7100000000000000000000000000000000000000000000000000000000600052601260045260246000fdfea264697066735822122041ee1fd828fd0692b2c6bbd07da4fc2ec5712971176553a4e47b61188d43c11e64736f6c634300080a0033",
  "linkReferences": {},
  "deployedLinkReferences": {}
}